:020000040800F2
:10000000008000207D8300089D5C00089F5C000844
:10001000A15C0008A35C0008A55C000800000000CB
:10002000000000000000000000000000A75C0008C5
:10003000A95C000800000000AB5C0008AD5C000893
:10004000CD830008CD830008CD830008CD83000850
:10005000CD830008CD830008CD830008CD83000840
:10006000CD830008CD830008CD830008B95C00086B
:10007000BB5C0008CD830008CD830008CD83000859
:10008000CD83000800000000CD830008CD83000868
:10009000CD830008CD830008CD830008CD83000800
:1000A000CD830008CD830008CD830008CD830008F0
:1000B000CD830008CD830008CD830008CD830008E0
:1000C000CD830008CD830008CD830008CD830008D0
:1000D000CD830008CD830008CD830008CD830008C0
:1000E000CD830008CD830008CD830008CD830008B0
:1000F000CD830008CD830008CD83000800000000F8
:1001000000000000CD83000800000000CD8300083F
:10011000CD83000800000000CD830008CD830008D7
:10012000CD830008CD830008CD830008CD8300086F
:10013000CD8300080000000000000000BD5C000846
:10014000CD830008CD8300080000000000000000FF
:10015000000000000000000000000000000000009F
:10016000000000000000000000000000CD83000837
:10017000CD83000800000000000000000000000027
:1001800000000000CD830008000000000000000017
:10019000000000000000000000000000000000005F
:1001A0000000000000000000CD830008CD8300089F
:1001B000CD830008CD830008CD8300080000000037
:1001C00000000000CD8300080000000000000000D7
:0801D000CD830008CD83000877
:1001D80010B5054C237833B9044B13B10448AFF379
:1001E80000800123237010BDB8000020000000002B
:1001F800E085000808B5034B1BB103490348AFF37A
:10020800008008BD00000000BC000020E085000858
:100218002DE9F8430026032881460C4690461F46E0
:1002280028BF012619D20CB9022616E00C2008F0C6
:10023800FDF8050008BF03260FD00C2108F0F0F8E0
:100248002F602E726C604A46474941F822503A4660
:1002580063684146484607F021F83046BDE8F28316
:10026800032803D2404A52F8200001727047FEB5B5
:1002780000218DF8001001914FF0FF3500263A4C0F
:1002880054F82600002869D0007A012866D101AA0E
:100298006946F0B207F040F9A84298BF05469DF8B4
:1002A8000000012804D0022818BF042812D03EE01C
:1002B80054F8260001680A6822F480520A6001682E
:1002C8000B6823F0C0030B600068016821F4C0418B
:1002D80001602FE054F8260002680199136801298B
:1002E8000CBF0221012161F34E331360006854F8FA
:1002F8002610019A036862F387130A681360086876
:10030800036843F48053036008680168C1F3800000
:10031800002854F82600006801680CBF21F0080185
:1003280041F008010160F0B2682100F00CF99DF875
:10033800000098B154F826305F68019A9DF80010C3
:10034800D7F800C0F0B2E0479DF80000012818BFB8
:10035800032803D16921F0B200F0F5F8761C022ECB
:100368008ED92846FEBD0000D400002010B50446F2
:1003780007F020FD2046BDE8104007F01DBD10B570
:10038800044607F069FD2046BDE8104007F0ACBC04
:1003980007F082B810B507F0BBF8042400B90024B0
:1003A800204610BDF6E72420704700002DE9F041F3
:1003B8000E468046706817461D46C0F3C00008B157
:1003C800686A08B1E86B08B91B2742E0B8F1030F67
:1003D80028BF17273DD24FF4966008F027F804008D
:1003E80008BF162735D04FF4966108F019F8DFF8E2
:1003F800AC09414640F821402660676084F81080C7
:10040800A56004F28E4304F281223146404604F08E
:1004180092FD07001DD120684168C1F380000028C3
:100428006068016804D041F008010160012203E01E
:1004380021F0080101600022337903F0030311461B
:10044800404604F0A6FD317901F00301404604F06E
:10045800D1FD3846BDE8F081DFF8401951F8200099
:10046800C18B4A0402D0C18B4A1EC283018C4A0444
:1004780002D0018C4A1E0284C18C4A0402D0C18C6D
:100488004A1EC284418C4A0402D0418C4A1E4284CE
:10049800818C4A0402D0818C4A1E8284704738B508
:1004A8000C46DFF8F81851F82050B4F5004F22DA5E
:1004B800E88B410403D0E88B00F01EF8E883288C11
:1004C800410403D0288C00F017F82884E88C4104F4
:1004D80003D0E88C00F010F8E884688C410403D05D
:1004E800688C00F009F86884A88C410403D0A88CB3
:1004F80000F002F8A88431BD214600F0F9BEDFF80B
:100508009C2852F820004268136861F30C3313608A
:10051800482242747047DFF8842852F820004821A6
:100528004174704705F01FB8DFF87018024651F89B
:10053800223059680A68C2F38001002918BF02F006
:10054800EDB901F0CDBBF8B5032804460D4614D229
:10055800002600960023DFF848783E682A462146A0
:100568000920B047DFF8342852F824309A68D36855
:1005780029462046BDE8F4401847F1BDDFF81C289D
:1005880052F82000C160704780B5DFF810180246A5
:1005980051F822100F2381F8323089688A6A90470F
:1005A800002002BD38B500F0E8FB53681C6848F22B
:1005B80008710C4048F20835AC4205D1916899237E
:1005C80082F832308A6A9047102032BD2DE9F04314
:1005D80080460C46DFF8C40793B0414650F82150D6
:1005E800DFF8C017174668464C2207F01CFF05F1D4
:1005F80032010026087820B968680268C2F3003022
:1006080008B903267FE0D5F804C02868DCF800E0C4
:10061800426868680368C3F38000CEF3022CD5F8FB
:1006280004E09EF8009009F00309D208002807BFEB
:100638000220002300200423BCF1030F0CBF4FF05D
:10064800080CB446B9F1020F02F001020CBF4FF0DA
:10065800400EB64602431A434CEA02024EEA020230
:1006680012F0030F04EB440318BF42F0100212F01B
:10067800050F1DF8030018BF42F020020240824215
:1006880018D1052C4E7005F25E222ED00B2C0ED000
:100698000D2C28D0112C0FD0122C12D0142C12D0C3
:1006A800152C17D0162C09D0182C1CD01FE0AF68B9
:1006B800F86AE0B9022626E0112017E0162717701D
:1006C80015E0122012E028680789C7F3800070B986
:1006D800102618E028680789C7F3C01008B9102049
:1006E80012E0152002E04F7001E0052010700DEBBC
:1006F8000307787850700DEB030290780870404635
:10070800A9688A6A9047304613B0BDE8F083F8B507
:1007180000F05FF823B96B681F68C7F300330BB9A3
:1007280003241AE000237370012940F2023340F2D7
:10073800037704D0062912D007291AD025E0696862
:100748000A68C2F3800141B1012185F85F120722CE
:100758003270A9688A6A904700242046F2BD696809
:1007680009680F409F42F8D11268AA622B213170A4
:10077800EFE7696809680F409F42EED11268AA62E4
:100788005D2185F85F126222E2E71024E5E7F8B5FB
:1007980000F01FF823B96B681F68C7F300330BB963
:1007A800032414E06F683F6840F204733B40B3F5DC
:1007B800407F0CD145243470A9610024696962F333
:1007C800C401696100227270A9688A6A904720464C
:1007D800F2BDDFF8E43B044653F8245005F1320635
:1007E8000224337870472DE9F84F81468A46DFF8AE
:1007F800C80B494650F8214094F832009B46002522
:1008080020B960680168C1F3003008B9032566E0C3
:10081800C1F3022003280DD16068017801F00301BB
:10082800012998BF01255AD9DDF8288040F2051121
:10083800884501D3022552E08DF8002004F25D2698
:10084800606920F0200060619DF80000032808D04E
:10085800042818D006281DD008281DD00A281ED024
:1008680020E00C21B170606940F0200060615FEA0F
:10087800080025D0484600F086FA0027012808BF5E
:100888000427002017E00D20B070616941F02001B5
:100898006161ECE70E20F7E75B20B070E7E75C21C9
:1008A800B170E4E710251AE03A181BF8001022444A
:1008B800401C82F885134045F6D3A4F8908401E0E3
:1008C800A4F8905404F13200312280F801A09DF878
:1008D8000010317002704846A368996A8847284614
:1008E800BDE8F28F38B504460D46052D207C0CBFB7
:1008F8001F215E21FFF727FE207C294604F0D9FD41
:10090800EFF3108072B6002184F83C1080F3108851
:1009180031BDDFF8A41A51F820004168087800F0CA
:10092800030070474268136861F382031360007C18
:1009380004F045BBF0B51421EFF3108472B600F152
:1009480030052A7B32B300F51376B35C5F0658BFD7
:1009580003211FD54FF484735A431044CB38A86041
:100968000278407802EB0023287BAB80325C02F0EF
:100978001F02012A04D0022A05D0042A07D009E060
:100988001121002005E0012212212A7002E0132122
:100998000220287084F310880846F0BD10B501467F
:1009A800EFF3108272B691F83C00C8B1401EC0B295
:1009B80001F24D2300241C54401E8041C00F1B5CD3
:1009C8005C060AD5401C81F83C0082F31088087C3C
:1009D80089688A6ABDE810401047002081F83C0009
:1009E80082F3108810BDDFF8D01951F820100020CC
:1009F800EFF3108272B691F83C1001B1012082F336
:100A08001088704718B1022805D002D305E01120DC
:100A1800704712207047132070471420704738B56C
:100A280005464FF21F00A98E002401400D2902D16E
:100A3800102169742CE0287F88B1401E012814D940
:100A4800801E14D0401E23D0401E092884BF0B38B6
:100A580001280AD9801E05D04D3806D00AE00322A5
:100A68006A7416E00F20687413E0112000E00F206C
:100A780068740DE0287C5C21FFF765FD03216A6836
:100A8800697440F2047011680140B1F5407F00D0EC
:100A98001524204632BD38B50446DFF81C09224625
:100AA80050F82250052914D16868016821F0100116
:100AB80001600120696960F34A2105F1320069612A
:100AC80014220023027083721E21287CFFF73BFD4D
:100AD80003E0686940F4802068612046A96848E11D
:100AE800704710B5044694F8320018B1207C5B2199
:100AF800FFF729FD204600F02AF800F08EF820685C
:100B0800037903F0030309D0207C0122012104F0BA
:100B180040FA6068016841F0080108E0207C002282
:100B2800002104F036FA6068016821F008010160CC
:100B380000F040F8920840EA820008600121207C19
:100B480004F07EFA207CBDE8104004F0EEBC7CB5D1
:100B580004460020019000216068026822F010021B
:100B68000260204600F0D6FB4FF4137104F1140024
:100B780007F056FCA568207CAE69042301AA02216F
:100B8800B0474FF0807000900423A568207CAE69C0
:100B98006A460621B04720680179207C01F00301EC
:100BA80004F028FA00F006F822F0406242EA806277
:100BB8000A6073BD2068616800790A6800F0030064
:100BC8007047032100F5187007F02ABC10B50446D9
:100BD80094F8320018B1207C5B21FFF7B4FC204662
:100BE800FFF7B5FF0121204600F094FB207C04F0BC
:100BF8009CFC00F012F801F00303C1F3C00205D019
:100C0800207C012104F0C5F9022004E0207C0021A9
:100C180004F0BFF93E20607410BD60680168C1F33C
:100C280080000028704738B5DFF88C37024653F843
:100C3800224065682C6853F8222004F00305A94275
:100C4800A8BF294661F3010451680C6051680B681C
:100C580003F00304012C0CBF0024202423F02003FC
:100C680023430B6052681178BDE8344001F003015A
:100C780004F0B9B9DFF84017024651F822100A7F8C
:100C8800092A05D04A68136843F01003136054E337
:100C9800704770B5DFF8202752F820300020002474
:100CA8001A1992F84D2222B1641CE4B2012CF7D92A
:100CB80070BD1A1920201D1982F84D02012095F8DF
:100CC8004D6200FA01F11819314380F84D120120E4
:100CD80070BDDFF8E41651F820000021CAB20244C2
:100CE80092F84D3203F06003202B04D0491CCAB29D
:100CF800022AF3D37047002082F84D02704710B5DE
:100D0800DFF8B42652F820000022D3B2C41894F8B1
:100D18004D4204F06004202C04D0521CD3B2022BA4
:100D2800F3D310BD4FF484725343C41804F13D004B
:100D3800BDE8104007F077BB38B500F01EF8002179
:100D480054184B1C94F84D5205F06005202D03D023
:100D5800D9B20229F4D331BD94F84D42551844F064
:100D6800400485F84D4292F83C1009B982F83C30AD
:100D780091688A6ABDE832401047DFF83C1602469F
:100D880051F822207047DFF8301651F820004168EA
:100D98000868400E00F0010070470000E0000020E5
:100DA80000000020308600082DE9F0478CB004468A
:100DB800002003900E46637C012B4FF0020A04F1D9
:100DC800300704F2632904F2652504F2672248F229
:100DD8001B0800F06381182B3FD0192B4ED01D2B18
:100DE80000F08E80272B00F0AA80282B00F0B58019
:100DF800292B00F0BC802C2B00F00582302B00F052
:100E080079813A2B00F0EE813B2B00F0D1813C2B0D
:100E180000F0BE814B2B00F0F880632B00F044817A
:100E2800642B00F05481672B00F00281682B00F0DE
:100E38001181742B00F07481932B00F09E80942B09
:100E480000F09F80952B00F0B080992B40F0E08156
:100E580006212046FFF746FD95E1FFF7DEFE1DBFA0
:100E68006069800800F00100022000901923082220
:100E780000F03AFA00286FD10720E8E0307811280E
:100E88003DD1B988C80B21D1C1F30230F0B1084671
:100E980000F01F01042919D1A568D5F818C0C0F3BE
:100EA8000233B868821C207C9B000521E04730781B
:100EB800142803D01421317000F0D1F90320607494
:100EC8000721207CFFF73FFB4FF0000AB88810F499
:100ED800704F14D100F01F00042818BF10280ED13D
:100EE8003078142803D01421317000F0B8F90320A9
:100EF80060740821207CFFF726FB4FF0000A80E091
:100F0800049004ABA668207C776905AA0121B8473C
:100F18000498042100F040FA08B1032079E1049A0A
:100F280003209208002101900092029105AB04224F
:100F3800204600F0BEFA00280ED10A21ECE012206B
:100F480020770521207C04F0E3FA2820607448F219
:100F58002D01E1834FF02D0A5CE100F05FF9FBD130
:100F6800207C052104F0DAFA0020E0830BE13178D7
:100F7800142901D000F071F94CE1204600F090F9F5
:100F880048E1FFF74AFE1DBF6069800800F00100D4
:100F9800022000909523092200F0A6F90028EFD13D
:100FA800102000F03FF92221B6E03078142828D02C
:100FB800B88810F4704F24D100F01F01032906D01F
:100FC800042918BF0C2906D0102911D019E0204691
:100FD80000F0F6F908E000F01F000C28207C0CBF98
:100FE80026212721FFF7AFFA00F022F907D108E000
:100FF800207C2821FFF7A7FA00F01AF901D000F0A9
:101008002CF900F00BF924D1BDE000F018F904AA7E
:101018001421B8470398002800F0FA80039A920830
:101028000092002103200291019004AB0C22D5E02C
:1010380060680168C1F3800000B90220009068234D
:101048007978182200F051F9002802D10F2000F019
:10105800E9F8DFE0307814281BD0397878788142B5
:1010680017D1B988C80B14D1C1F3023088B13879C7
:1010780000F01F000C280CD1B868A568AF69821C65
:10108800207C04231421B84700F0D2F801D000F0E6
:10109800E4F800F0C3F806D1112175E000900323AD
:1010A800102200F021F9B5E000F0C9F80821B8478E
:1010B8000398192100F070F9002872D100F0C4F8E3
:1010C80000F0DFF8012200F0C4F8482124E000F025
:1010D800B6F81321B8470398182100F05DF90028E5
:1010E8005FD100F0B1F800F0CCF80F2200F0B1F8B1
:1010F800612111E000F0A3F80921B84703980721FE
:1011080000F04AF900284CD100F09EF800F0B9F838
:10111800022200F09EF84F21207CFFF714FA79E0B4
:10112800317814292CD0B988C80B15D1C1F30230F5
:1011380090B1387900F01F0005280DD1B868A5686E
:10114800D5F818C0021D207C04230F21E04700F0C9
:101158006FF801D000F081F8387900F01F001028EE
:101168000ED1207C5921FFF7EEF90020E083317879
:10117800142901D000F071F8032161744FF0000ABE
:1011880000F04CF846D1032161744FF0000A41E0A9
:1011980000F055F80D21B8470398042100F0FCF839
:1011A800002835D100F050F800F05CF8072227E05D
:1011B800049003ABA668207C776904AA0F21B8477E
:1011C8000398042100F0E8F8002821D10321012226
:1011D80001910092029004AB05220021204600F004
:1011E80068F917E000F02BF81121B8470398092196
:1011F80000F0D2F860B900F027F800F033F80522C3
:1012080000F027F806E0207C5021FFF79CF9BAE7A8
:101218000120607450460CB0BDE8F087E08BB0F553
:10122800004F70472077A4F81E804FF01B0A7047C4
:10123800032060744FF0000A317814297047A668BB
:10124800207C776903AB7047287000216970207C87
:1012580099E50021204600F04BBA14203070204652
:10126800FFF79CBB18B9687840F0800068700020D0
:10127800039A0290121D92B20092032101914B46EB
:10128800704718B9687840F0800068700020039AA9
:101298000290121D032192B2019100924B467047B1
:1012A8001CB50446A168207C8A6B90470A2802D0A6
:1012B8000C280BD00CE0002000900323032200F040
:1012C80013F880B92046BDE8164079E02A2006E0E8
:1012D8006068017801F00301022902D101206074DD
:1012E80013BD2A21617413BD0021204600F0B4B853
:1012F80010B50246C2F30E044FF40040A142B8BF35
:10130800501A80B210BD83685B68002B1CBF007C3C
:101318001847704742681368C3F30222914207D006
:10132800426861F30A2313605A21007CFFF70BB966
:1013380070472149024651F822104A6942F40032A6
:101348004A6189688A6A104701464FF0FF308A8CE3
:1013580053041CBF888CC0F30E004A8C530407D07A
:101368004A8CC2F30E02904224BF488CC0F30E0090
:10137800704738B504460D4660680268C2F302201B
:10138800854203D0207C5A21FFF7DDF860680168A8
:1013980065F30A21016031BD38B50022884208D2C0
:1013A8001820064C16A32568009000210620A8479F
:1013B8000222104632BD0000E0000020000000209C
:1013C80010B5044660680168C1F3C0000028606871
:1013D80009D141F008010160C1F3C001207C03F08C
:1013E800F5FD252107E021F0080101600021207C9E
:1013F80003F0ECFD2421207CBDE81040FFF7A3B8E2
:10140800446174612053697A65206973206E6F7432
:1014180020636F7272656374000000000100064962
:1014280008BF0FF231000860704701460020034AE8
:10143800914208BF012070470000002000004130A1
:1014480010B503F0A3FD0446FEF7ADFF041904F53B
:10145800616010BD704700002DE9FC41089C0646FC
:10146800884617461D4600F01FF890B101940220E7
:10147800009006F26323307C3A46414603F0E2FDD1
:101488000328F0D010280DD00D2F0CBF0122002208
:1014980002E07074102005E003460095414630468E
:1014A80000F0E8FBBDE8F68170680168C1F3003020
:1014B8007047FEB50446089F0D461646002010E00A
:1014C800002104EB8002D3F800C00A444FEAC10EA1
:1014D800491C2CFA0EFC042982F865C2F1D31B1DA5
:1014E800401CB842ECD36068FFF7DFFFD8B19DF825
:1014F8002800019004F26323B800801C80B2009099
:101508003246207C294603F09DFD0328EBD01028A5
:1015180008D09DF824100091034600222946204651
:1015280000F0A8FBFEBD1020FEBD0000F8B5044683
:1015380004F25A26A06B8178C07801EB0021318033
:1015480094F8340000F01F00B070C1F3C3200028E5
:101558001EBFC1F380200028342026D10804C00F04
:1015680004F28122C1F308030BD1A4F88E34B4F835
:101578008E1488421AD2A36B191D0D5C1554401C99
:10158800F5E711F4F84F06D1A08EC0F30230072812
:101598000CD31A2B0AD9C1F3802038B9B4F88E04B9
:1015A800984203D20021E183372089E0207FB17877
:1015B800002834D0012908D0022918D0052928D0BC
:1015C800072921D00F2909D07CE000F084F81923DD
:1015D8000821B84703206074472110E000F07BF829
:1015E80018231321B84703206074622107E000F034
:1015F80072F807230921B847032060744E21207C24
:10160800BDE8F440FEF79FBF00F065F81A230D21EE
:1016180003E000F060F809231121B8474FE0CB1E22
:10162800082B4FD8DFE803F0050E4E174E313A2449
:10163800290000F04AF845D000F053F81021B847C7
:101648003A203DE000F041F83CD000F04AF80E2185
:10165800B8473B2034E020680189C1F38010002896
:1016680030D000F038F802230C21B8473C2027E09E
:1016780020680189C1F380200BE0A06805691DB3CB
:10168800B4F88E34207CA847F1BD20680189C1F3E5
:101698004020B8B1A168086950B913E020680189F1
:1016A800C1F3402000281EBFA168086900280BD09C
:1016B800A568B178B4F88E34207C2E69B047032031
:1016C8006074F1BD01216174F1BD20680189C1F325
:1016D800003000287047A06BA568AF69021D207C08
:1016E8007047A06BA568AF69021D207C0123704775
:1016F8002DE9FE430A9C0C9D06460F4690469946E6
:10170800FFF7D2FEB8B1019500944B46307C48F003
:101718008002394603F096FC0328F1D0102808D03F
:101728009DF82C100091034600223946304600F0FF
:10173800A1FABDE8FE83112070741020F9E72DE9A5
:10174800F84F84B004464FF00208617C312904F256
:10175800672A04F2853B04F25A2604F1300904F2A0
:10176800632504F28E4748F21B0015D0332958D060
:1017780034295FD0352900F08A80362900F09D8011
:10178800372900F09F80382901BF032060744FF08B
:101798000008A7F80080C3E0039500253D80207C61
:1017A800FFF7F1FA012806D104F287300570457079
:1017B800CDF80CB017E0F5723573207CFFF7E3FA2B
:1017C80018B9307B40F08000307378881B28284691
:1017D80006D300F0A9F81A28FBD304E000F0A4F817
:1017E80079888842FAD36069C0F3401030B100F0BC
:1017F8008FF914BF01250225332000E0032002954C
:1018080001907888039B001D80B20090F27899F8C7
:1018180003102046FFF76CFF002801D1707920776C
:101828007EE0E0834FF01B08F078042848D174214B
:10183800617475E031887A88C1F3C3211A20414365
:10184800914204DA3088C0F3C3200A2801D3032068
:1018580019E0501A1A283ABF521AD2B21A22002096
:1018680005E043181BF803300AF80030401C90428A
:10187800F7D331887A88207CC90A2B4601F00F01FA
:1018880004F06DF8352060744FF0000848E0606996
:10189800C0F34010002814BF362003200021019017
:1018A80002912B4678880090F27899F8001020462B
:1018B800FFF71EFF0020388032E0E0834FF01B085E
:1018C800392004E0E18BB1F5004F02D10F2060749C
:1018D80026E0E0832946207C04F06AF84FF01B08D4
:1018E8006068FFF7E2FD80B10020062101900091B9
:1018F8002B46B27899F80010207C42F0800203F061
:10190800A1FB03280346EBD002E0112060741023EA
:1019180039200090002299F80010204600F0AAF91A
:10192800404605B0BDE8F08F1BF800100AF800101B
:10193800401C704700F130010A784A708A88D10B40
:1019480018BFFFF7F3BD12F4704F08BF00F002B8DC
:10195800E4E0000010B500F087F9401E17285BD8B6
:10196800DFE800F0CC0CBFBF1EBF205543313BBFA2
:1019780017C1C1B9678AB196AA7CC1B500F0C8F889
:1019880040F0BC80022020772B2100F0BEF898217F
:10199800B3E003202077322100F0B7F81020A9E047
:1019A800332199E00620207700F0B2F801BF2068C3
:1019B8004168C1F3C000002824D0207C0C21FEF728
:1019C800C2FD4C2096E000F09AF81BD00820207742
:1019D8003C2100F09AF822208CE0A168C86A00280F
:1019E80010D0112121779D2084E0207C2321FEF74F
:1019F800AAFD6069C0F3821008B10F207AE0A168DF
:101A0800886B00286FD010202077932175E06068DC
:101A18000168C1F30220032865D1C1F3800010B129
:101A280000F06DF85FD01D21617407202077062132
:101A380052E020680189C1F3C000002859D000F0A5
:101A480067F801BF20684168C1F3C000002850D082
:101A5800632161740A20207746213DE060680168AF
:101A6800C1F3800010B100F04AF842D064216174DB
:101A78005F20207760212FE020680189C1F34010A2
:101A880018B30B2020774D2100F03FF8302031E0CB
:101A980020680189C1F3800000282AD00B20207714
:101AA800492100F032F860680168C1F3800008B18C
:101AB8002D201FE0112120E020680189C1F3C0100A
:101AC80018B12F2016E009202077012115E00F20FA
:101AD80020774B2111E05921207CBDE81040FEF70A
:101AE80032BD112006E06068017801F00301022987
:101AF80002D10120607410BD2A21617410BD2068D4
:101B08004168C1F3C00000287047207CFEF71BBD68
:101B180060680168C1F3800000287047FEB500F0D6
:101B2800A3F801282AD002280CD003283CD0062884
:101B38007CD0072800F089800A2800F08F800F28C1
:101B480070D08EE0A06B8178C27801EB0223017916
:101B5800407903EB014303EB00630093FFF7D8FFE1
:101B680063D0A568207CAE6904236A460621B04785
:101B7800012020770021A184092070E0FFF7C8FF29
:101B880071D1A08EC0F38111207CFFF74CF8A568B5
:101B9800A08EAE69C0F30233A06B821C207C9B0030
:101BA8000421B04744205AE00021019100916B467E
:101BB800A06B8178C278A668776901EB0225017964
:101BC800407905EB014505EB0065207C01AA03215E
:101BD800B84700980421FFF7DFFB002801BF6068C1
:101BE8000168C1F3022003281AD1019841F2883113
:101BF800884215D12D0F052D10D0082D0CD0092D98
:101C080004D00A2D2FD1207C662101E0207C65219B
:101C1800FEF799FC032022E0292123E027201EE07B
:101C280003211FE0204603F016F8F7BD206801895C
:101C3800C1F3001080B1A06BA568AE69821C207C3E
:101C480004230B21B0472C2009E020680189C1F347
:101C5800002008B13D2002E0012103E0012060746A
:101C6800F7BD11216174F7BD044694F8340000F003
:101C78001F00704710B51024052B07D0062B0CD079
:101C8800072B0FD0092B08BF092427E002994174BC
:101C98000024416921F4804102E0416941F4005186
:101CA80041611BE029B1012A08BF992115D00724F9
:101CB80014E041680B68C3F30221042903D0012A08
:101CC8000AD10F2109E0002AFBD18268516B002953
:101CD800F7D09222427401E011214174204610BDD0
:101CE8002DE9F84F0446DFF82C0C8CB0214650F84B
:101CF8002150687C48282CD12846FEF728FF284622
:101D0800FEF75FFF28680379287C03F003030022AD
:101D1800002103F03EF96868016821F008010160BC
:101D2800286841686868026861F30102026001215D
:101D3800287C03F085F9287C03F0F7FBA97C3E207A
:101D48003E29687405D0A87400F025FD3E220420C1
:101D5800B8476869C0F3804030B1686920F48020D2
:101D68006861642100F03BFD2846FEF7E3FD032887
:101D78008DF80C0003D101200DB0BDE8F08F8DF86F
:101D88000D404FF4FA7848F2F41948F21B0B6868D2
:101D980001680224C1F30030002800F0108168694E
:101DA80005F13006C0F3404080B1A7206969687426
:101DB80021F4003169610020B070A97CA72920D0E6
:101DC800A72000F0EFFCA7220420E047B0780F28F6
:101DD80018BF142815D100F0CEFC01D000F006FD84
:101DE800B2786A740020B070A97C914209D0AA74B4
:101DF80000900023DFF8207B297CD7F800C004205E
:101E0800E04700F0B3FC17D168680168C1F3C0006F
:101E1800B188C1F3401188420ED100F0A3FC00F054
:101E2800E8FCA97C92209229687400F0D48000F024
:101E3800B9FC92220420E047687C010005F25E2785
:101E48004FF21F0A00F0BF80411E70D0891E012981
:101E580040F2AA82891E00F0BB810A3900F0BD81D8
:101E6800491E00F04282491E00F04882C91E00F057
:101E7800E081091F01295AD9891E00F06E82C91E06
:101E880055D0491E00F03383091F00F09B82491F7B
:101E980002294CD9C91E00F08082491E00F08F83A8
:101EA800491E44D0891E00F0CD83491E01293ED920
:101EB800891E01D0891E052940F2F383891F00F08D
:101EC800CE83491E032932D9091F00F08D80891E4F
:101ED80000F0DA81C91E00F0A080491E00F0D7800A
:101EE800491E00F0E380491E00F0FB80491E00F007
:101EF8004681891EACD0891E19D0491E00F0438343
:101F0800091F00F01282C91E00F0B282491F00F0BA
:101F1800FB82491E00F083820939022907D9C91EAC
:101F280000F05E83491E00F06B83491E012940F2D0
:101F3800BC830D39FBD0123900F0CC830C394AD060
:101F4800491E0229F3D9491F00F01382491EEED019
:101F5800491E00F03D81491E00F07D81491E082977
:101F680040F2A8830B3900F0BB8303A9284602F08E
:101F780059F804466A7CA87C904204D0AA7400F000
:101F88000AFC0420B8479DF80C00DFF88C69142877
:101F980000F0B1832846FEF742FD152804D100F071
:101FA800EAFB01D000F022FC6A7CA87C904204D0B5
:101FB800AA7400F0EAFB0420A0470024B7E34FF01E
:101FC800FF342046D8E600F0FCFB5F2100F007FC58
:101FD8004FF0FF34CEE700F0F4FBA868416B00290E
:101FE800F6D0287C8847F3E768680168C1F30030B9
:101FF8000028BFD001F003026868012A0CBF002244
:10200800202221F020011143016001202877A5F842
:102018001E90444643216974ACE700F0A7FB2FD11A
:10202800B188C80B28D1C1F3023028B3084600F0A4
:102038001F01012920D10022BA70696941F0040109
:102048006961C0F381119DF80D00FEF7ECFDB088C1
:10205800C0F30233B068AE68B769821C287C9B0065
:102068000421B8470120287700F0ABFB44206874AE
:102078009DF80C10142903D000F074FB00F0B9FB94
:1020880000F06CFB02D10F216974002472E7AB6881
:10209800287C1C6A6A4605F11801A04700986969FE
:1020A80060F3C401452069616874EEE76869C0F3AC
:1020B800C03000B102200290012146200190009119
:1020C80005F11803022200212846FFF7F2F900283B
:1020D80006D1686920F400406861A5F81EB01B2489
:1020E80048E700F043FB04BFB08810F4704F42D1BA
:1020F80000F01F00022818BF032819D0042818BFB1
:102108000C2824D168680168C1F30220032805D08F
:1021180043206874A5F81E90444614E0307900F016
:102128001F000C280CBF49200320687400240AE013
:10213800A5F81E9000F04FFB4720687444469DF8B0
:102148000C10142903D000F00DFB00F052FB30797D
:1021580000F01F00022809D0032809D0042803D062
:102168000C2808D1032104E0022102E0042100E048
:10217800012100F034FB00F0F1FAB1D183E700F05F
:10218800F5FA02BFB0880AEA00000628F3D100F089
:102198002DFB032100F020FB287C1021FEF7D3F94A
:1021A80000F009FB1ABF2868016801219DF80D009D
:1021B80002F046FF0020A8846869C0F3C100032824
:1021C80004BF4AF22830A884032169740024D2E7A6
:1021D80003A9284601F0DCFACBE600F0ECFA1EBFB2
:1021E800A868026B002A02D0287C0021904700F0E2
:1021F800E8FA28460121FFF78DF8B87803280AD3B2
:102208006869C0F3800000281EBFA968486B0028D1
:1022180066D10021FFE6401CB87005212846FEF76C
:1022280061FB48F2E830E883012200F0D0FA9B20F5
:102238003AE700F0C0FA1EBFA868026B002A02D075
:10224800287C00219047002200F0C1FA48F2E830CB
:10225800E8839B2118E7AA689DF80D00D36B98477F
:1022680001280DD148F6E300E88369219DF80D00A7
:10227800FEF769F940206874132100F0B0FA0024D1
:1022880000F06CFA50D11BE0AA689DF80D00D36BE2
:1022980001219847012810D12846FEF722FC052283
:1022A800002100F095FA9DF80D006821FEF74BF922
:1022B800A5F81E9043204446687400F04FFA33D1C5
:1022C8000622002100F084FAB8780328FFF4DBAE78
:1022D8006869C0F3800000281EBFA968486B002801
:1022E80040F0C48000216974CFE6002000900323E9
:1022F800032200F078FA002816D186E6686801689B
:10230800C1F3022004283FF4BEAE00200090502301
:1023180071780D2200F067FA002805D1032000F03B
:1023280018FA302100F05BFA24E600F024FA13D002
:1023380031787078814202BFB1880AEA0100032827
:102348000AD101202877A5F81E904321697400F06E
:1023580009FA444600F04DFA0DE70094432307229A
:1023680000F040FA002817D1062000F0F2F90B21FE
:10237800D8E700F0FBF902BFB0880AEA0000062897
:102388000AD1287C2C21FEF7DEF80320687400F0BF
:10239800F1F901D000F02AFAECE5002000900323BF
:1023A800042200F020FAE5E5042806D0002028776A
:1023B80004216974202100F012FA03A9284600F0CC
:1023C8001BFAD6E5A868816839B39DF80D008847DF
:1023D8000A2802D00D281AD01FE000F0B6F9012211
:1023E8000021B047002000905923032200F0FAF999
:1023F80000280BD108202877062200F0C0F9002118
:10240800AB68287C5C6AA04700F099F9B2E5002027
:10241800009003230C220021C3E72A2044E600F0A1
:10242800A5F902BFB0880AEA0000062810D1287F63
:10243800092803D000F089F90922B04753206874AD
:102448009DF80C10142903D000F08CF900F0D1F994
:1024580000F084F9DAD1AB68287C5C6A0F2200218D
:10246800A047A968486B00283FF40DAE92210BE6FF
:1024780000F0B1F900F069F90A220021B047686854
:10248800017801F00301022904BF287C02F0C5FD90
:1024980001212846FEF746FA287F092804D000F0D3
:1024A80054F90B220121B047002000905B2306223B
:1024B80000F098F948B9AB68287C5C6A0C220021C6
:1024C800A04748F21400E8831424687C5B280DD0E8
:1024D80000212846FEF726FA00F037F906220121E6
:1024E800B047072200F031F90021B04742E50094D7
:1024F80058230A2200F077F920B9082000F029F9BA
:102508000222EFE70F22EDE700F030F904BFB088B0
:1025180010F4704F09D100F01F00032806D00428DA
:1025280020D00C281CD0102823D087E000F027F9F1
:1025380000F005F9287F092804D000F006F90622E2
:102548000021B04700F047F9287C3A21FDF7FBFF4E
:1025580000F011F901D000F049F9592068746DE0D4
:102568003B2100E0162100F03AF900F004F907D108
:1025780061E0287C1721FDF7E6FF00F0FCF85AD04F
:1025880000F034F957E0049104ABAE68287C776911
:1025980005AAB84704980421FEF7FEFE10B10320EF
:1025A8006874E7E4049A03209208002101900092DD
:1025B800029105AB01222846FEF77BFFDAE40020F2
:1025C8000321012202900191009205F12C030622B9
:1025D80000212846FEF76DFF0028EFD15D21A1E616
:1025E80000946623142200F0FEF8002807D1A5F80D
:1025F8001EB04A2100F0F3F80B201B242877B9E419
:1026080000F0B4F81AD1B188C80B17D001F01F0137
:102618000C2913D1B068AC68A669021D287C042374
:102628000A21B04700F0A7F801D000F0DFF8287CB5
:102638004B21FDF788FF03206874002400F08EF812
:10264800DDD12CE0009439233A7800F0CBF800284B
:10265800D5D178782877442100F0C1F83DE500F01D
:102668008AF819D0B088C00B09D02846FEF75EFF5B
:1026780000F081F801D000F0B9F80020E883B088B4
:102688000AEA0000102807D10321697400F072F8E3
:1026980001D000F0ABF8EC8300F060F819D1032109
:1026A800F2E42846FFF74BF863E403A92846FEF74F
:1026B8007BFB5EE403A9284601F08BF9044600F091
:1026C8007AF80EBF0121286801689DF80D0002F014
:1026D800B7FC4FE49DF80C10284602F06EFA49E466
:1026E800002000905823132200F07DF80028F6D12E
:1026F80009202877F1E46869C0F34030B8B1686907
:10270800C0F3803038B1287C5B21FDF71CFF686975
:1027180020F4804068610320A97C6874032905D0EF
:10272800A87400F032F803220420A0470124686945
:1027380020F40050002C68613FF429AB41E448F2D2
:102748008430E8834FF461747047AB68287C5E6A14
:1027580070472877A5F81EB01B247047E88BB0F5A2
:10276800004F704714208DF80C0070479DF80C003E
:102778001128704700249DF80C00142870476868D9
:10278800016841F0100101607047002100910023A9
:10279800297C346870470021009100235E4E297C13
:1027A80037687047A8740021009100235A4F297C8C
:1027B800D7F800C0704768680168C1F3C0300028C6
:1027C80070476868016821F01001016070470121B5
:1027D8002846FEF798BD04212846FEF79BBD287CB5
:1027E800FDF7B1BE00212846FEF736BE14218DF84C
:1027F8000C102846FEF7D2B87CB50E460446307851
:10280800022514280BD02046FFF794F830781428B6
:102818007DD0142131702046FEF7C0F877E0616959
:10282800C80C04F5187527D0208CB0F5004F0ED1D0
:102838000F216174002000900023217C364C26680B
:1028480070220920B0472878401C287054E0A18ED7
:102858006269C1F34221332001EBD24111FB00F13F
:1028680041F400412184A18E6269C1F3422101EB48
:10287800D2454543ADB24AE0A08CB0F5004F06D131
:10288800452241F400416274002561613FE0207CEB
:10289800FEF7A9F804F1310618BB707808B3606830
:1028A800006800F00301012908D000F003000228A5
:1028B80017D1207C02F0BEFB012812D1B07830700D
:1028C80070786074452803D1606940F40040606105
:1028D800002070706069A16AE16240F48040606124
:1028E8000AE0608CB0F5004F08D100216184052111
:1028F800A878401CA8706174002508E02046FEF7FF
:1029080023FD0546707810B1022D28BF0225284600
:1029180076BD0000E0000020000000202DE9F84FFF
:1029280080461A4886B0414650F82160707C482895
:1029380036D13046FEF70BF93046FEF742F93068DB
:102948000379307C03F003030122012102F021FB0B
:102958007068016841F0080101603068416870687A
:10296800026861F3010202600121307C02F068FB19
:10297800307C02F0DAFDB17C0220022970740FD09D
:10298800B074002100910023014C03E0E000002016
:1029980000000020317CD4F8009002220420C847AF
:1029A8007069C0F3804030B1706920F48020706194
:1029B800642100F0ABFE3046FDF7BCFF03288DF81C
:1029C8000C0006F25E25DFF8A89C48F21B0A48F2C4
:1029D8001E0B03D1012007B0BDE8F08F70680168B5
:1029E800C1F30030002800F017817069C0F340403F
:1029F800002806F1300700F01981404602F01CFB60
:102A0800A6207074092131770020B87048F21100AF
:102A1800716921F400317161F084B17CA62940F01C
:102A2800FF8002249DF80C0011281CD170680168F1
:102A3800C1F3C000B988C1F34011884213D100F036
:102A480026FE00F072FEB17C92209229707400F08C
:102A58000E81B074002100910023317CD9F800C0A8
:102A680092220420E047717C0A004FF21F0000F018
:102A7800F6804A1E6FD0521E00F00581521E012AB0
:102A880040F2B284921E00F04381521E00F045814C
:102A9800521E00F04A81521E00F09D81521E00F025
:102AA800E381D21E00F02682521E00F03482521EAC
:102AB80000F0DA80521E00F0A382521E00F06A82F3
:102AC800521E00F06C82521E00F07782521E00F0F7
:102AD8000383521E00F0BB82521E00F0C282521EB7
:102AE80000F09281521E00F0D982521E012A32D97A
:102AF800921E00F01483521E00F01F83921E2AD0EB
:102B0800521E00F0CE83521E00F0DC83521E00F0ED
:102B18001A84521E00F03A84521E00F04A83921E14
:102B280000F06983521E00F08083521E00F09A83E1
:102B3800521E022A0FD9D21E00F05983521E00F0ED
:102B4800C584521E07D0521E00F0D184521E00F0D8
:102B58000085521E012A40F23585921E01D0921E30
:102B6800052A40F22B85921F00F00385521E032A86
:102B7800F1D9113AEFD0521E00F01B810F3A00F044
:102B88001C84D21F012A84BF521F012AE3D90D3A9F
:102B9800E1D0123A00F042850C3A68D0521E022A5F
:102BA800D9D9D21E00F0D181521E00F0E181921EC7
:102BB800D1D0521E00F0AC80921E082A40F208853F
:102BC8000A3A00F0148503A9304601F02BFA0446AE
:102BD800727CB07C904203D0B274002100F062FD98
:102BE8009DF80C00142800F01F853046FDF717FFEC
:102BF800152805D19DF80C00142801D000F092FD8D
:102C0800727CB07C904204D0B27400F053FD042072
:102C1800A047002400F023BD4FF0FF342046DAE639
:102C2800A62000F046FDA6220420A047B87802247A
:102C38000F2818BF142811D19DF80C00142801D0B2
:102C480000F070FDBA7872740020B8700021B07C72
:102C5800F162904202D0B27400F024FDE2E600F086
:102C68003CFD5F2100F052FD4FF0FF34B0E7706883
:102C7800016821F010010160B068416B0029F3D0B0
:102C8800307C8847F0E700F022FD1ABF3068016801
:102C98000121404602F0D4F970680168C1F30030A0
:102CA80088B301F003027068012A0CBF00222022B9
:102CB80021F02001114301600020E870012100F09B
:102CC80029FD70680168C1F3001030B148F21400A2
:102CD800F0831424062171747AE7C1F3C030002808
:102CE8000AD0306801788A0740F18C802979142944
:102CF80080F08880F068002800F08480491C2971E1
:102D08000520707464E7307C2121FDF71CFCE1E1AB
:102D180003A9304600F03CFD59E7F08BB0F5004FB1
:102D280002D107217174002452E77169890801F002
:102D38000101304600F001FD052802D00928F3D032
:102D480011E001207169307741F0040171610020C0
:102D5800E870A870A6F81EA016201B2470740F2116
:102D680000F0D4FC34E77069C0F3800078B9E878E3
:102D7800332818D248F29601F183082070749624FB
:102D8800718C480402D0748CC4F30E0420E7706878
:102D9800017801F00301022904BF307C02F03FF9F9
:102DA80011207074BFE7307C2121FDF7CCFB002097
:102DB800A7E70021304600F0C0FC052807D100F045
:102DC800A8FC012000F05FFC16217174C7E7002001
:102DD800307711217FE7708CB0F5004F06D10021C4
:102DE800718405212879401C28717174F08BB0F525
:102DF800004FCBD130684168C1F3C01010B1E878FA
:102E0800401CE87007207CE79DF80C0011280BD1C6
:102E1800B988C80B08D1C1F30230002800F0EB8054
:102E2800387900F01F00022840F0E580B868817802
:102E3800C27801EB02230179407903EB014303EBEC
:102E480000630093B888C0F38111307CFDF7EBFE76
:102E5800B468307CD4F818C004236A460621E047D9
:102E6800092070740024C0E0B268307CD36901A9DD
:102E780098470A2811D00B282FD00D2870680168B0
:102E8800C1F302202ED103280CBF03230E230020F8
:102E980000900C2200F04DFC9AE6A6F81EB01E2405
:102EA80070680168C1F3022001280BD0019803283B
:102EB80002BF7069C0F3C100032803D14FF400407A
:102EC800F0830024002000900C2300F031FC0198CE
:102ED800716960F3C40171617AE6002000900C23E7
:102EE8000222D7E703280CBF03230E2300200090FB
:102EF8000422CFE7F08BB0F5004FEDD100F009FCCC
:102F0800B06801680029E7D0307C8847002840F085
:102F180052820D20F5E6002100910323062200F0DD
:102F280009FC002810D1032100F0F4FB307C1021AB
:102F3800FDF709FB0020B0847069C0F3C1000328C5
:102F480002D14BF2B060B08442E601210091972390
:102F5800022200F0EEFB0028F6D1307C34772921DC
:102F6800FDF7F1FA48F22620F08340F226242FE6F6
:102F7800F08BB0F5004FFAD1307C2A21FDF7E3FA47
:102F8800002000900323062200F0D3FB0028EED196
:102F98002E21E5E600200090072303227AE700208F
:102FA8000090122379780D2200F0C4FB0028DED1AE
:102FB800A6F81EA01B243021D2E69DF80C10142977
:102FC80019D03A7879788A4202BFBA881040032823
:102FD80011D1307C3121FDF7B6FA387810B90721C4
:102FE800717402E00320707400249DF80C0014280A
:102FF80001D000F097FBF08BB0F5004FB7D1DAE1C4
:103008007068017801F00301022904BF307C02F0E6
:1030180006F805213046FDF765FC00F05EFB00214F
:10302800A878401CA8700222706920F4C060706102
:10303800B97020F4E070706100F070FB69214046BF
:10304800FDF781FAA6F81EA01B24152059E6706822
:10305800017801F00301022904BF307C01F0DFFF91
:10306800ECE7F08BB0F5004F17D1A9787069032908
:1030780003D3C0F3800048BB2CE048F28A21F183D7
:10308800172272740024C0F34120421E9241D20FCD
:1030980000F044FB032200F041FB99E5B268D36BD2
:1030A800002140469847012806D148F22030F08395
:1030B80013214FF448747174F08BB0F5004FECD1C4
:1030C80000F02BFB7069C0F3800018B1B168486B41
:1030D80000281FD10021FEE5F08BB0F5004FDCD1B0
:1030E800042200F01BFBB268D36B012140469847CD
:1030F80001280AD13046FDF7F4FC68214046FDF767
:1031080022FA052200F00AFB7CE600F006FBB16813
:10311800486B002840F080820021717403E601208A
:1031280000901B23072200F004FB0028B5D10620DD
:1031380000F0A9FA1B240B2112E69DF80C001128B7
:1031480031D1B988C80B1BD1C1F30230C0B10846D0
:1031580000F01F01012913D1B468D4F818C0C0F3D6
:103168000233B868821C307C9B000421E04700F0E1
:1031780092FA01D000F0D6FA307C0D21FDF7E3F980
:10318800B88810F4704F0ED100F01F00042818BF43
:10319800102808D100F07FFA01D000F0C3FA307C83
:1031A8000E21FDF7D0F9F08BB0F5004F1AD10321AD
:1031B800B8E5B0688168D1B1307C88470A2802D068
:1031C8000D2810D013E0A6F81EB00020009024238C
:1031D80000F0AEFA1E24002804D100F04FFA0122B4
:1031E8000121E047F4E400200090032351E6002089
:1031F800009003237CE6F08BB0F5004FF2D100F08D
:1032080088FA00F05EFA062200F073FA00F077FA06
:10321800307C002101F0D3FE0020009025230622F7
:1032280000F087FA0028DDD1A5E09DF80C101129DF
:1032380002BFB9880840062805D100F028FA00F036
:1032480074FA26207074F08BB0F5004FCAD1B368B9
:10325800586B002840F0E081307C5B6A0A2201212B
:103268009847A8E000213046FDF75CFB00F002FA21
:103278000D220021A047307C1421FDF764F900F0ED
:10328800F9F90E220021A0477068017801F00301C6
:10329800012904BF404601F0D3FE3046FDF796FCF5
:1032A80041E5012000901F230A2200F042FA00287D
:1032B80098D1082000F0E7F9022200F01AFA1B243E
:1032C80039214DE59DF80C00112804BFB88810F489
:1032D800704F33D100F01F00032806D0042811D006
:1032E8000C2808D010281AD028E0307C3A21FDF7A5
:1032F8002AF920200CE000F0BDF905220121A047A1
:103308003B2102E000F0EFF9162100F0FFF903205D
:10331800707400249DF80C0014280DD10EE000F004
:10332800E2F9307C1721FDF70EF9032070740024B0
:103338009DF80C00142801D000F0F4F9F08BB0F5DA
:10334800004F22D133E700F0BCF9307F092804D0C0
:1033580000F094F906220121E04700F0D0F9307C12
:10336800002101F02CFE002000902123062200F00D
:10337800E0F9002809D100F07DF908220121A047D1
:1033880048F2D610F0834FF4EB7421E49DF80C104A
:10339800112902BFB9880840062803D12620707475
:1033A80000F0C0F9F08BB0F5004FEED1B168486B72
:1033B800002840F031810F21B4E4F08BB0F5004FC4
:1033C800E3D100F05BF90E220121E0477068017833
:1033D80001F00301022904BF307C01F020FE3046D1
:1033E800FDF7F4FB1521BBE403290FD10020716818
:1033F8003077087800F00300022804BF307C01F021
:103408000EFE04207074672100F080F99DF80C000E
:10341800142809D03046FEF78DFA9DF80C001428C0
:10342800B3D000F07FF9B0E77069C00C27D0308CBA
:10343800B0F5004F0ED10F21717400200090317C3F
:10344800D9F80040002370220920A047A878401C22
:10345800A87068E4B9887269C1F34221332001EB8E
:10346800D24111FB00F141F400413184B9887269FD
:10347800C1F3422101EBD2444443A4B285E7B08CA6
:10348800B0F5004F08BF0F211BD0307CFDF7ABFA19
:1034980068B9B87858B1F978797070740020B87044
:1034A8007069B16AF16240F4804070613BE4708CED
:1034B800B0F5004F06D10021718405212879401C00
:1034C80028712FE43046FDF73FFF25E40020032153
:1034D800012202900191009206F12C03062200219C
:1034E8003046FDF7E6FF00283BD15D2138E4002097
:1034F800049004ABD6F808C0DCF8147005AA0A21B9
:103508004046B84704980421FDF746FFF8B9E8712A
:1035180000212972307CFDF736FC18B9287A40F072
:103528008000287205A9049A06F2672004F07BFF40
:1035380000200321082202900191009206F26323E1
:103548000C2200213046FEF7D3F84C21CEE70120AB
:103558007CE50121009139232A78F97800F0EAF80E
:1035680000287FF435AB687800F08DF81B244421DF
:10357800BCE7F08BB0F5004F04BF9DF80C00142891
:103588003FF415AE9DF80C0014283FF421ABB98820
:10359800C80B03D03046FDF7C9FF3EE701F01F0115
:1035A80010297FF404AE00F072F8002400F0BDF892
:1035B8000020F08303217174592197E73046FEF704
:1035C800BEF803E003A93046FDF7EEFBFFF7FFBAAC
:1035D80003A9304600F0FDF9044600F078F80EBF64
:1035E800012130680168404601F02AFDCDE69DF8CA
:1035F8000C10112902BFB9880840132808D100F01F
:1036080046F800F092F800200090202300F090F88F
:10361800F08CB0F5004FA4D1922152E79DF80C1020
:10362800304601F0CAFAB0E67069C0F34030B0B174
:103638007069C0F3803038B1307C5B21FCF783FFC0
:10364800706920F4804070610320B17C7074032994
:1036580004D000F02EF803220420A047012470694A
:1036680020F40050002C70613FF4B8A9FFF7D6BAD7
:1036780000000020B368307C5C6A7047B368307C17
:10368800D3F824C070473077A6F81EA070471420DE
:103698008DF80C0070470320707400249DF80C000E
:1036A8001428704700910023317CD9F800C0042009
:1036B8006047B074002100910023317CD9F80040A4
:1036C80070477068016841F01001016070477068C8
:1036D8000168C1F3C030002870477068016821F0A4
:1036E800100101607047B368307C5C6A04220121D4
:1036F8002047B368307CD3F824C001216047B36801
:10370800307CD3F824C0072201216047307CFCF7C5
:103718001ABF04213046FDF7FDBD062201213046BF
:10372800FDF7F1BD14218DF80C103046FDF736B9C0
:10373800032200213046FDF78FBEFEB50446002067
:1037480002900D46A668207C776902AB04F26522D8
:103758000021B8470298801C029002980421FDF7C6
:103768001BFE98B960680168C1F3003000280DD0CD
:103778000298019580B2009004F26323207C012214
:10378800002101F05FFC0328E7D0FEBD1020FEBD3C
:103798002DE9F0418CB0022605468846687C05284C
:1037A80005F5147448F22D0702D09A2861D0F1E08B
:1037B8006A68117801F00301284600F036FA226899
:1037C8005209520142F4004242F0010222602346AB
:1037D8006868016849F63F00C1F34011024042EAB7
:1037E800413242F07F42226068680168C1F380007C
:1037F80000281DBF6869800800F0010002200290BF
:1038080001219A20019000910F222846FDF751FED0
:1038180050B9686940F4803068615121297748F2CD
:103828001E0068841E26B5E00928FCD0A07C152857
:1038380038BF6F8407D3E868446924B1287C002323
:1038480005220121A04700F0AEF800F08080E88B47
:1038580041040BD008206874E98BC1F30E012D29AF
:103868002EBF2D26EE8BC6F30E0693E00720687454
:1038780090E00120FDF7C6F898F80020A98E824252
:1038880042D1C80B40D1C1F3023000283CD095F892
:10389800340000F01F000F2836D1A86B877807F096
:1038A8001F0101292BD1C7F3811040B3A88EC0F3A3
:1038B8008111284600F0B9F9E9684869E8B1C7F309
:1038C8008110012819D1A86B811D287C03AA01F059
:1038D80025FA70B9EE68287CC7F38112776903ABC3
:1038E8000121B847287C5221FCF72DFE1420A07432
:1038F80003E0287C1B21FCF726FE00F05AF898F814
:10390800000014280ED145E001F01F01102910D144
:1039180000F04FF85921287CFCF715FE98F80000B4
:10392800142837D0142188F800102846FDF736F8F7
:1039380030E0688CB0F5004F2CD10021698400F08C
:1039480032F808D1E86844690CB100F027F8032080
:10395800687400261EE068680168C1F38160022867
:103968000ED169680A68012060F39B620A60012130
:10397800287C01F03FFB6F8408202D26687407E03F
:10398800E86844690CB100F009F80720687400265B
:103998000020287730460CB0BDE8F081287C002351
:1039A80004220121204768680168C1F30220032826
:1039B80070470020688468680168C1F30220032802
:1039C80002D16874002670470720002668742E7795
:1039D800704738B504460225607C9D2810D00ED368
:1039E8009F2854D03BD3A12800F07E8070D3A32811
:1039F80000F09A80C0F08680A42800F0EE80F8E0FD
:103A08006168086800F4B850B0F5985F1FD1A168E4
:103A1800207CCA6A90470A2802D00D2807D00DE0FA
:103A280061699E2041F4805160746161E1E0002089
:103A3800009003230C2200F0F4F8DAE00020009054
:103A48000323042200F0EDF80320607405E06069A8
:103A580020F480500321606161740025C9E00020D2
:103A680000909E23032200F0DCF80028F6D160685D
:103A78000168C1F3C03030B19F20607448F29601EC
:103A8800E183962501E0A02060743F21A1E0E08B4E
:103A9800B0F5004F00F095800A78112A01BFA28E78
:103AA8004FF21F000240062A11D100F0ABF8A068BF
:103AB800026B12B1207C0021904700F09CF8422153
:103AC800207CFCF740FD0025658484F8625290E074
:103AD800A068026B12B1207C01219047A12000212F
:103AE800607484F8621284E00020009003230622A8
:103AF80000F097F800287CD1606920F4805060615C
:103B0800422166E000200090A3230B2200F089F8F0
:103B180000286ED1606940F48050606148F21B0152
:103B2800E1831B253E2154E00878112804BFA08EAC
:103B380010F4704F41D100F01F00032806D004286C
:103B48001CD00C2813D010281FD036E060680268FB
:103B5800C2F3C030002819BF9F206074A02262748D
:103B68000878142801D000F04DF83F2122E000F039
:103B78004EF801D000F046F840211BE000F047F86D
:103B880001D000F03FF8412114E060680268C2F3F8
:103B9800C03010B9A420607406E0606920F4805039
:103BA80003226061627400250878142801D000F0AF
:103BB80029F84321207CFCF7C6FCE08BB0F5004FC8
:103BC80017D160690321617420F480506061002579
:103BD8001C21207CFCF7B7FC0BE0A068026B12B13B
:103BE800207C0121904700F006F848F22D000025BE
:103BF8006084284632BD606920F4805060610321EA
:103C08006174704714220A702046FCF7C7BE6069C9
:103C180020F480506061032262740025087814281B
:103C2800704700212046FDF717BC4268126802F071
:103C38000303994228BF194661F39B6241680A60F1
:103C4800C2F38161007C01F0D5B9000070B5B44AB7
:103C5800034652F8234023685D681022C5F34023C9
:103C6800002B1EBFE368002B022901D1022227E0A6
:103C780004F132052B7813B900F049F80BB9032287
:103C88001EE0697011B1012908D019E061680B685C
:103C9800C3F30221032913D17D210CE0616809686F
:103CA80040F204730B40B3F5827F1CBFC1F30221BD
:103CB800032905D105212970A268916A8847002245
:103CC800104670BD70B500F023F9002B14BF02290F
:103CD80002221AD004F132052B7813B900F017F834
:103CE8000BB9032211E0C6F30223032B0DD17F2366
:103CF80069702B7029B1012907D16169C1F30041AD
:103D080019B1A1688A6A90470022104670BD63689D
:103D18001E68C6F300337047F8B500F0D3F8EC68B6
:103D28001023002C14BF022902231ED005F13206ED
:103D3800347824B96C682768C7F300340CB90323B6
:103D480013E0C7F30224032C0FD18124717034705F
:103D5800A5F8582229B1012907D16969C1F30041A1
:103D680019B1A9688A6A904700231846F2BDF8B5C8
:103D780000F054F80DB902241BE006F132073D7833
:103D880015B900F045F80DB9032412E00CF4E1650B
:103D9800B5F5427F0DD1822500F031F829B102290D
:103DA80000D006D2C2F3004119B1B1688A6A9047BF
:103DB80000242046F2BDF8B500F030F80DB9022411
:103DC8001BE006F132073D7815B900F021F80DB96E
:103DD800032412E00CF4E165B5F5427F0DD183258B
:103DE80000F00DF829B1022900D006D2C2F3004133
:103DF80019B1B1688A6A904700242046F2BD7970EB
:103E08003D70A6F85822726963F388127261704790
:103E18007568D5F800C0CCF300357047404C0546AE
:103E280054F82560F56810247047F8B5FFF7F6FFD9
:103E38000DB902241DE006F132073D7815B9FFF7E8
:103E4800E7FF0DB9032414E07569C5F300450DB902
:103E58000D000ED1CCF30225032D0AD17970002470
:103E68008521397006F515710A608B80B1688A6AF8
:103E780090472046F2BD70B500F024F8EB68102496
:103E880003B109B102241BE005F13203197821B905
:103E980069680E68C6F3003109B9032410E0C6F357
:103EA800022103290CD10021597084241C7005F5C6
:103EB800157106230B608A800024A9688A6A9047D6
:103EC800204670BD164B044653F82450704770B511
:103ED80000F01EF80BB9022218E004F132052B7825
:103EE80013B9FFF714FF0BB903220FE0C6F3C03371
:103EF8000BB90B000AD1C6F30223032B06D1697054
:103F080086212970A268916A88470022104670BDF0
:103F1800034A034652F82340E36810227047000022
:103F2800E0000020F8B5044604F1340104F294429C
:103F38000888000B00F00700431E137694F8310040
:103F480000286ED110E04B6803EB80039D79DE7981
:103F580005EB06271D7A5B7A07EB054707EB036736
:103F680042F82070401CC0B2157EA842EBDB94F8E2
:103F7800503203F01F035B1E48F2190148F20F008C
:103F88000DD05B1E28D05B1E2BD05B1E2ED05B1E77
:103F980031D05B1E34D00A3B0F2B3DD9F1BD5021E7
:103FA800626821771368D4F85012C1F34131C3F322
:103FB8004012914204DAD4F85012C1F3413103E0BF
:103FC80061680A68C2F340116268136861F34513B7
:103FD8001360E083752023E052212177E083762067
:103FE8001EE053212177E083782019E054222277BC
:103FF800E183792014E055222277E1837A200FE0CB
:10400800E068C36A2BB129001268207C18BF01211F
:10401800984703216174F1BD5A222277E0837B20FF
:104028006074F1BD2DE9FB47044699B094F811C0BE
:10403800ACF1750007284FF0020803D2097814295B
:1040480040F0EA84052303200422BCF1750F04F133
:10405800340504F1310704F514764FF0010A4FF4E2
:104068007F4148F21E094CD0BCF1760F00F0A480C5
:10407800BCF1770F00F01C81BCF1780F00F0728161
:10408800BCF1790F00F0B381BCF17A0F00F0CF8159
:10409800BCF17B0F00F0F981BCF17D0F00F031829B
:1040A800BCF17F0F00F09382BCF1810F00F0DA823F
:1040B800BCF1820F00F03183BCF1830F00F09383D1
:1040C800BCF1840F00F08C84BCF1850F00F0F983FB
:1040D800BCF1870F00F04182BCF1890F00F08F829C
:1040E800BCF18B0F00F0DE82BCF18C0F00F02D8349
:1040F800BCF18D0F00F09A83BCF18F0F00F00384A0
:1041080025E100F012FD00F0668430686AF30400CF
:1041180000F0CAFC00F09EFC1FBFE068002802689F
:10412800002A3DD0090CB1F57F4F39D1207C08A970
:104138009047032802D00F2803D031E000F0E9FCB3
:1041480030E000F0F7FC11A80899416004250999AE
:1041580081600A99C1609DF84010C1F3400111B116
:104168000C99016105259DF84010C1F3C00121B1EA
:104178000E9940F825106D1CEDB29DF84010C1F362
:10418800001181B19DF84010C1F3C00119B100219F
:1041980040F825106D1C0F9940F825106D1C02E0A1
:1041A80000F0BBFC306031680020032211910290BE
:1041B8000192009511AB9FE100F0B7FC7AD030680E
:1041C80068F30400306040F40040306060680168C3
:1041D8003068C1F3401120F4C04040EA41303060FB
:1041E80061680A7802F00B02092A1EBFE1684B6871
:1041F800002B51D0000CB0F57F4F4DD1207C04F23C
:10420800AD4203A99847032843D00F2844D100F0B2
:1042180091FC1C2104A804F003F90025002304F2F2
:10422800AC421BE0DDF80CE051F820C03EF81390DA
:104238004CEA094C41F820C00FE06D1C58085FEAB1
:10424800C37C05A9EED5DDF80CC051F820E03CF898
:10425800139049EA0E0E41F820E05B1C5078834227
:1042680038BF0C2BE9D304F2AC41401B4870E8B2CC
:104278000C2809D131680491002077220721029087
:104288000192009104AB5BE02D066D0E3068AD1C09
:1042980005E000F03EFC01E000F03FFC30600490D7
:1042A80003210020EDB202900191009504AB23E1B7
:1042B80000F037FC00F08F83306868F3040030604A
:1042C80003AA00F0EFFB6AF38711316004A9E368E1
:1042D800207C5D68A8471C2105A804F0A1F80023EC
:1042E800002504F2AC4218E0DDF810E051F820C0D7
:1042F8003EF815604CEA06460CE05B1C6808EE07C1
:1043080006A9F1D5DDF810C051F820E03CF8156099
:1043180046EA0E0641F820606D1C5078854238BF89
:104328000C2DEAD304F2AC41C01A4870D8B20C285C
:104338000ED100217720072202910190009205AB4F
:1043480039780F2200F084FC48F20F00E08363E321
:104358001B065B0E9B1CDBB200930021032002911D
:10436800019042E0E18B0125B1F5004F61D0316841
:1043780060F3040100F074FB00F06CFB1EBFE06802
:10438800D0F808C0BCF1000F25D0207C03AB04AAEC
:10439800090CE047032802D00F2805D01BE032683B
:1043A80042F0C002326019E09DF80C0098B107286D
:1043B80011D200F0BFFB06AB00209DF80C1088421C
:1043C8000CD2049A116843F820106D1C04990A1D38
:1043D8000492401CF1E700F0A0FB30600020316837
:1043E8000591032202900192009505AB84E000F04C
:1043F80098FB1ED0306862F3040000F040FB0028F0
:1044080034D1E168C868002830D000F0CFFBDD68FF
:10441800A847032827D00F2828D100F08BFBC0F32A
:104428000220616921F4E07141EA801119E000F08D
:1044380078FB00F0D082306863F3040000F01FFBC3
:10444800A0B9E168086988B100F0B0FB1D69A84708
:10445800032808D00F2809D100F06CFB616921F40A
:10446800E071616105E000F054FB01E000F055FBEC
:1044780030600021029103220192CDF800A033465A
:1044880039780F2200F089FBC6E200F04EFBD0D04D
:10449800E068D0F834C0BCF1000F21D03178207C1E
:1044A80004F2AC4904F294434A4601F01F01E04784
:1044B800032812D00F2813D100F03CFB002099F8F4
:1044C800001088420FD204F294426D1C52F820105A
:1044D80004AA42F82010401CF1E700F01AFB01E0A2
:1044E80000F01BFB3060316800200322EDB203911D
:1044F80002900192009503AB39780F2200F0A8FBD7
:104508008AE230686AF304003060334640F40040C1
:10451800306060680268C2F34010326822F4C0421A
:1045280042EA4032326022F4E062326022F0C00295
:10453800326061F31F42326000F07EFB1DBF60698C
:10454800800800F00100022000F080FA872000F0C7
:1045580021FB0028D4D15020A1E000F06FFA00F030
:1045680069FA63D12988C80B60D100F05FFA62D07C
:1045780000F067FA5AD1142A01D000F011FB6868DC
:10458800877807F01F01012950D1C7F3811000284F
:1045980051D0E1684869002800F00282C7F3811011
:1045A800012840F0FD816868811D207C08AA00F080
:1045B800B5FB50B9E568207CD5F8148008ABC7F383
:1045C80081120021C0475121A3E01B21A1E000F086
:1045D8009AFA68F30400306000F064FA00F029FBEE
:1045E8001DBF6069800800F00100022000F02EFA6B
:1045F800892000F0CFFA002853D152204FE000F074
:104608001DFA00F017FA11D12988C80B0ED100F055
:104618000DFA10D000F015FA08D1142A01D000F0D4
:10462800BFFA6868867806F01F01022940F04081C9
:10463800C6F38110002800F03B81E16888690028F2
:104648006AD06868811D207C08AA00F005FCE5682E
:104658003978207CD5F8188008ABC6F38112C0479A
:10466800532156E0316821F0C0013160334660F3D0
:1046780004013160308960F31F4100F0F1F900F066
:10468800D8FA1DBF6069800800F00100022000F020
:10469800DDF98B2000F07EFA002802D1532000F0CB
:1046A800BFF9B9E100F0CAF900F0C4F9BED1298810
:1046B800C80BBBD100F0BAF9BDD000F0C2F9B5D132
:1046C800142A01D000F06CFA686890F8029009F09A
:1046D8001F010329AAD1C9F381100028ABD0E168D2
:1046E800C869002818D068683168821D207C08AB2A
:1046F800090C00F0E5FBE5683978207CD5F81C80CA
:1047080008ABC9F38112C047C9F38110012803D14E
:104718005421207CFBF717FF42E100F0F4F962F323
:104728000400306000F0CFF91DBF6069800800F018
:104738000100022000F08AF98C2000F02BFA0028F2
:10474800AFD154202077342167E000F077F900F0EA
:1047580071F94FF034096DD12988C80B6AD100F07E
:1047680065F96DD000F06DF964D1142A01D000F01C
:1047780017FA00202077696891F802A00AF01F0054
:10478800042857D1CAF38110002859D001280AD02B
:1047980012D303280AD03FBF606920F4E07060613B
:1047A8004FF0360908E04FF0350905E0606920F45C
:1047B800E07060614FF03709207C4946FBF7C3FE83
:1047C800E168086A00280DD03068C0F30220009024
:1047D800CAF38112E56833683978207CD5F82080DF
:1047E8001B0CC047DCE0306820F0C000306063F389
:1047F80004003060334600F066F91DBF6069800828
:1048080000F00100022000F021F98D2000F0C2F92B
:1048180000280AD1552020775521207CFBF793FEEC
:1048280048F23200E0834FF03208F5E000F006F974
:1048380000F000F93CD12988C80B39D100F0F6F80E
:1048480036D000F0FEF833D1142A01D000F0A8F9D0
:1048580000202077696891F8029009F01F00052868
:1048680026D1C9F3811018B3012804D009D303282D
:1048780005D002D305E0562104E0572102E0582173
:1048880000E05521207CFBF75EFEE168486A0028BD
:104898000DD03068C0F302200090C9F38112E5689A
:1048A80033683978207CD5F824801B0CC04777E022
:1048B800287800F01F0010287AD000F032F9B4D11F
:1048C80089E000218DF80C1000F039F9056B45B12D
:1048D80005A8009003AB32783978207C02F01F02DB
:1048E800A84700F04BF91DBF6069800800F001007F
:1048F800022002908F2000F0A5F9002802D15A204A
:1049080000F08EF886E02888000B00F00700411EB2
:104918008DF8041000F092F800F08CF843D1298843
:10492800C80B40D100F082F83DD000F08AF83AD1A7
:10493800142A01D000F034F968688278706802F0AF
:104948001F0181422FD1C2F3811060B3E168886BE7
:1049580030B3002015E06968830001EB03080831D3
:1049680098F806C098F807E0CB5C98F809100CEBAB
:104978000E2606EB034602AB06EB016643F8206001
:10498800401C9DF804108842E5D302A8009001ABB2
:10499800E5683978207CD5F8388002F01F02C047D6
:1049A8000020E08317E0297801F01F0110290FD1BA
:1049B8001A980178142901D000F0F2F80020E08359
:1049C800032161748046207C5921FBF7BCFD23E05C
:1049D80000F0A7F820D1032161744FF000081BE014
:1049E80000208DF80C0000F0AAF8836A1BB1207C27
:1049F80005AA03A9984700F0C1F81DBF606980089F
:104A080000F0010002200290032000F01BF908B911
:104A18005A2020770021797040461CB0BDE8F08705
:104A28002077A4F81E904FF01E087047C1F302309B
:104A3800002870471A990A78824270473878FBF73D
:104A4800E1BF287800F01F000F2870470290CDF8CA
:104A580000A070476068027802F00B02092A7047CC
:104A6800316041F40041316060680168C1F3401071
:104A7800316821F4C04141EA40313160704730600B
:104A880040F400403060606832680168C1F340104B
:104A980022F4C04242EA4032326060680168C1F3E1
:104AA800C000704761F31F40306040F40040306040
:104AB80060680168C1F34010316821F4C04141EADF
:104AC800403131607047318961F31F40306040F4F4
:104AD80000403060606832680168C1F3401022F419
:104AE800C04242EA4032326060693168C0F38210E5
:104AF80021F4E06141EA0021316060680168C1F396
:104B0800800000287047306820F0C00030603346CD
:104B18007047306840F0C0007047306868F387100D
:104B28007047E08BB0F5004F7047E08B0125B0F57A
:104B3800004F704730686AF38710306070473068FC
:104B480020F0C0003060716861F304003060318982
:104B580061F31F40306040F40040306060680168D5
:104B6800C1F34010316821F4C04141EA403131605D
:104B78006AF30A2131600491E06870479DF80C00DF
:104B8800401C8DF80C0004AB60680168C1F380001C
:104B98000028704701900F2239782046FCF789BC1D
:104BA8001A99142008702046FBF7F8BE3068E368AD
:104BB800C0F30222010C207C704770B514298CB018
:104BC800044634D1E06800281CBFC06B00282ED0F2
:104BD80000218DF80C1006ABE568207CEE6B03AA6B
:104BE80004A9B0479DF80C100498491C20F4004013
:104BF8008DF80C10049004F131050499059105AB6A
:104C080000F01AF81DBF6069800800F0010002205A
:104C1800029003209DF80C10009101900F22297832
:104C280000F016F808B959202077002169700CB0F7
:104C380070BD21F4E061316060680168C1F38000F3
:104C4800002870479DF80C10009101900F223978C8
:104C58002046FCF72EBCF8B5054628684168C1F324
:104C6800401000281CBFE86800284ED0A96B88783F
:104C7800CA780B79497900EB022000EB034000EB7E
:104C880001600146CA0B12F0010212D0012A02BFCC
:104C9800C5F85012C0F38110002836D12868416841
:104CA800C1F30020002830D02846BDE8F240FFF7C5
:104CB80039B9A88E000B00F00700421E85F8AC2415
:104CC800002005F294430FE0AA6B02EB800294796E
:104CD800D67904EB0627147A527A07EB044707EBD8
:104CE800026743F82070401C95F8AC249042EBD33F
:104CF800E86800281CBF046C002C06D0287C05F24C
:104D0800AC42A04708B9032006E06868017801F0C2
:104D18000301022901D101206874F1BDF0B500F04A
:104D2800F3F8240B04F00704651E0023EEB2032EEB
:104D3800C0F081800C784E788F7804EB0624CE780A
:104D480004EB074404EB066414600F794E7907EB13
:104D580006268F7906EB0747CE7907EB066656607D
:104D68000F7A91F809C007EB0C2E8F7A91F80BC0D7
:104D78000EEB074707EB0C6797600826EF1E92F8C3
:104D8800205005F0E00EFDB2002D82F820E053D04F
:104D9800E40E7D1E04F00704052C4CD8DFE804F06F
:104DA8000C030323292F4EF0080400F047F8946100
:104DB8002F46FCB2002C3FD0808EC0F38110022811
:104DC8003AD31068C00D10F0070035D0401E0228F5
:104DD80031D892F82000C0F3C00000281ABF083666
:104DE8007F1E361D11E04EF0010400F027F8D46054
:104DF800DEE74EF0040400F021F85461D8E74EF0E5
:104E0800020400F01BF81461D2E7FFB2012F12D19F
:104E180092F8200040F0100082F8200088190178EC
:104E2800447801EB04258178C07805EB014505EB52
:104E38000065D56100E002231846F0BD82F82040E5
:104E48000C260C7B4F7B04EB07278C7B07EB044479
:104E5800CF7B04EB07647047F0B52E4B53F8200066
:104E6800838E1B0B03F007035B1E0024DBB20025B7
:104E78001476547600F016F819BF761C16760125BC
:104E88005576A41CE4B200F00DF819BF761C16760E
:104E980001255576A41CE4B2B4EB830F01D2280097
:104EA800E8D0F0BD4E1C085D375D00EB0726107E8C
:104EB80022F81060167E374632F81700002870472F
:104EC800F0B500F021F89983240B04F00704601E64
:104ED8000024C0B21C601619155D717805EB012716
:104EE8001119241D8D78CE78196807EB054703EB57
:104EF800810507EB06676F60E4B21E68761CB4EBA9
:104F0800800F1E60E7D3F0BD024C54F82000848E59
:104F180070470000E000002010B500F079F819791A
:104F280011B119794C1E1C7152F82010487808B13B
:104F3800401E487010BD2DE9F84380460E461746BE
:104F48001D464FF49C7003F071FA04004FF01609E7
:104F580019D04FF49C7103F063FA00F0A8FCDFF855
:104F6800480A414640F82140A762E56201200090C6
:104F780004F1300270680FF6A421C0F380034046A4
:104F880002F05CFD81464846BDE8F2834FF46A7042
:104F9800704730B5DFF8104A54F820506D8A61F335
:104FA800082554F820104D8262F3451554F8201056
:104FB8004D8263F3871554F82000458230BD10B543
:104FC80000F00BF861F308245C8210BD10B500F006
:104FD80004F861F345145C8210BDDFF8CC2952F85F
:104FE80020305C8A704710B5FFF7F7FF61F387142C
:104FF8005C8210BD40B500F00BF89E8A61F38716FD
:105008009E82DB8A52F8200061F38713C38240BD79
:10501800DFF8942952F82030704702F053BD10B5DC
:10502800044602F053FDDFF8801951F824200020CF
:10503800507110BD02F056BD02F058BDFBF71ABE04
:1050480002F048BD2DE9FD4DDFF85CA983B080462C
:105058005AF8282094460CF101070324387918B12E
:10506800387A08B90F2050714FEA4800401C0E9E4C
:105078008DF805008DF8041002930CEB010E0F98C3
:1050880097F804B0BBF1100F0CF10E0500F2FB818C
:10509800DFE81BF0110025003000F901370055004A
:1050A8004500B600F901F9016D0182019B01B101CA
:1050B800F901F501E001EFF3108572B69DF80C00D7
:1050C800FBF791FC002804BF787A002807BFFF216E
:1050D80039720020387285F310880621A9E19DF8FD
:1050E8000C0002F0EFFC5AF8281002204871132037
:1050F8003870CBE1012810D1387860B90521517199
:10510800C4E1022809D19DF80C0002F0EBFC01284B
:1051180008BF052070D00924B8E1062053E10CF13E
:10512800120232F81110C1F38111022905D10128A8
:1051380062D0022808BF04205ED005205CE00CF194
:1051480012009DF8102030F811000CF1120362F3E0
:10515800040023F811004FEAD21BC0F30E0040EA06
:10516800CB3023F811000020787033F81130D80BB9
:1051780025D002988378C77803EB0723EB81E88969
:10518800C0F3802068B9E889C0F3C32008BB301F8A
:10519800A882C0F30800EB8903F47E431843E88132
:1051A80017E000200CF11203A882012033F81170D7
:1051B80060F30E370CF1120020F8117009E0B01EF0
:1051C800800860F30E330CF1120020F81130002330
:1051D800AB820D2A02BF0CF1120030F8111011F445
:1051E800704F08D100208EF80B000F2203210CF11C
:1051F800060000F020FC07205AF82810487145E105
:1052080002F1120333F81100C00B7CD0908BC0F36D
:10521800802000286CD15AF82820578C938B1B2F9C
:105228000FD3D80B0DD002F112031E2633F811004C
:1052380040F4E04023F81100508CA0F11A03538485
:1052480056E0C3F3C32018B9184667F308009083E3
:1052580048F6FF705AF8282002F1120302F11207EB
:1052680033F81130034027F81130908BC00B3BD036
:10527800508C801C8008070307F4E04702F11200F5
:105288003B4320F81130528C921C12F0030221D0BB
:105298000298002305E07F8C2F44074400253D71C8
:1052A8005B1CDDB2C2F1040E5AF828707545F2D3C2
:1052B800029048F6FF7207F1120030F81100024020
:1052C800000B401C000300F4E040104307F11202F9
:1052D80022F811005AF8280000F1120232F81130B1
:1052E800C3F30236B600B61C5AF8282000205084B2
:1052F8005AF82800828B029882705AF82820908BDE
:10530800029A000AD0705AF82800DFF8A05600F177
:105318000B021230535C30F811005AF8282063F35E
:105328004B2002F1120323F81100029A1070022296
:105338005AF8280000F11203029833F81110090AEC
:1053480041700A215AF82800C68141710274B0B22E
:10535800009000F0A5F89DF8050042F2107102F0E7
:1053680099FF00F097F8B3B202F094FB8EE0EFF3E8
:10537800108772B65AF8280041790A2909D19DF890
:10538800050002F0D1FF012803D15AF828100D209A
:10539800487187F3108879E0A8899EF80B10430AB2
:1053A80003F00703994204BF00F01F00012809D148
:1053B800491C01F007018EF80B1000205AF828103C
:1053C800487116E00D20507160E09EF80B00401CFB
:1053D80000F007008EF80B0000205AF828104871DA
:1053E80048F2FF71EA890A40EA814FF6FF3002402D
:1053F800EA8105244AE07878401C78700CF11203A1
:105408000CF1120030F81120C2F38110012833F892
:1054180011000CBF03220222C00B06D0E989C80B79
:1054280003D1C1F308011B2907D27878824204D33B
:1054380010215AF82800417128E05AF82800002164
:10544800417107249EF80B10491C01F007018EF8E2
:105458000B101BE00A2050710221A97042F2107152
:105468009DF8050002F016FF2B8800F013F8DFF80E
:105478003C5502F00FFB009600F012F806E0002001
:105488005071062402E0002050711024204606B016
:10549800BDE8F08D029A9DF804109DF80C00704745
:1054A800029B9DF804209DF80C10D5F800A002205E
:1054B80050472DE9FC410546DFF8EC842F4658F8A3
:1054C80027400020E070E072207360730E4600F001
:1054D800EEF958F82700DFF8D474002242710092E0
:1054E8000023D7F800C0324629460220E047284664
:1054F80000F03CF83146284602F0D0FA0520207129
:10550800E07801281CBF20790028F9D1BDE8F38193
:10551800052908BF02F0C8BA10207047052904BF42
:10552800072102F0C6BA1020704738B50446DFF8E4
:105538007804214650F8215000226A712A702A7195
:10554800EA722A736A7303210F22A81D00F073FA06
:10555800002285F82520204602F09BFA2046BDE867
:10556800324002F0C7BA02F0C9BA704702F0C6BAB0
:105578002DE9F84F8246DFF8309484B0554659F843
:105588002540DFF828B4884602F081FA01464FEA40
:105598004A00C0B202F07EFE04F12806307A717A21
:1055A80000EB01274FF21F003840012813D1690092
:1055B800491CC8B202F0B8FE012840D059F825109D
:1055C8000B204871678300F06CF904F13003424600
:1055D800514601204DE10FF25C4005884FF21F0053
:1055E80001213840A17204EB08020D28029203D170
:1055F8000021D17200F05BF95FEA08000CD1608AE3
:10560800C0F34011C0F300224FF6DF60054045EAC1
:10561800411545EA022502E04FF6FF6215404FF2B8
:105628003F110D4007F46060054345F040052576BD
:1056380041462D0A65765046FBF72BFB002800F003
:105648001B81012020744FEA4A00C0B202F06CFEB0
:105658000028F8D0022304F118024146504602F00F
:1056680019FA039084F8098004F130015046FBF7D9
:1056780046FBB07AF17A00EB0122ADF80420380439
:10568800BDF80410BDF80450C90BC00FC5F30805D8
:10569800ADF8061004D0080002D1291D009119E0C8
:1056A8002178A9B9C7F3023090B107F01F00032889
:1056B8000ED1B07AF17A00EB0122307B717B02EBDC
:1056C800004202EB0162120F082A04BF0120207079
:1056D80000F0E7F804F13003DBF800C04246514619
:1056E8000120E047039848B90221009104F118030A
:1056F800DBF800C0424651460220E0470298817913
:10570800C7F34220814204BF0398002800F0A2801A
:105718003904029A490E01F007019171380427846F
:10572800C00F1CBFBDF8060000286ED0BDF80400ED
:10573800E0831A20BDF8041011F4F84F3CD1C7F3E8
:105748000231072901D31A2D20D8002134340CE066
:10575800BDF80430326814F801E0C3F3C32310FB2A
:105768000313491C02F803E089B200F094F8EFD360
:10577800C7F302308000801EA84204D2C7F302306B
:105788008000801E0FE0706805800EE0012184F81B
:105798002510002004F1340133680A5C1A54401CB7
:1057A8001A28F9D31A20716808804146504605B076
:1057B800BDE8F04FFBF76DBA7168098840F2051231
:1057C80001F11A0393423FBFC7F3023301EB830190
:1057D800891EA9421AD2012184F8251034340021E7
:1057E80007E0BDF804303268655C00F048F8D5542D
:1057F80089B200F050F8F4D371680A883F04BF0EEC
:1058080007F01C07B81E82180A8035E071680B88FB
:1058180000F03BF8914219D200F037F8A94215D3AD
:10582800012284F825200021343409E0BDF8043031
:10583800326814F801A000F022F802F803A089B237
:1058480000F029F8F2D37068058015E0002184F88B
:10585800251011E0FF206072002121745046FBF7EB
:1058680038FA0020A07217210091002265A3514642
:105878000620DBF80040A04705B0BDE8F08FC3F371
:10588800C32310FB0313491C7047C7F3023103EB12
:105898008101891E7047C7F302329200921E91421D
:1058A8007047C7F302308000801C009070470F22B9
:1058B8000321A01D00F0BFB82DE9FC410D46052DC0
:1058C800804616D1384F464657F82640002000211A
:1058D800C2B2401CA218C3B2032BD172F8D3FFF78F
:1058E800E6FF57F826000022427122704046FFF773
:1058F8003DFE00202D4E3768009000232A46414681
:105908000120B84729464046BDE8FC41FBF7C3B82B
:10591800254A52F820000121C1707047FBF7E0B812
:1059280038B5214A044652F824502A7C012A02D06C
:10593800022A09D010E011B9FBF7FEF901E0FBF7E4
:10594800C8F90020A87207E002F09EF8640001463A
:10595800641CE0B202F09EFC0020287431BD30B512
:10596800114C54F82040A58B48F2FF300540608A5E
:1059780045EAC12540F4004005F47E45C2F308021B
:1059880060822A43218C42F4004261F30400A2831E
:1059980060821870608A000A5870A08B9870A18B7A
:1059A800090AD97030BD0000EC000020000000207A
:1059B80030B5FFF72DFB9C8BDD8B44F40444ED0AD6
:1059C8009C836D1CED0204F4064405F4F0452C4359
:1059D8009C835C8A1D8C44F400445C8265F3040457
:1059E8005C82002452F8200044715A8A0A70588A4E
:1059F800000A4870988B88709A8B0C71120A4C7147
:105A0800CA7030BD50524C5F4556454E545F52588F
:105A18005F444953434152444544000079550008C6
:105A2800C1580008195900082559000829590008C3
:105A380045500008010070B4840746D04C1E002968
:105A480041D0D5B2034602E0611EE4B30C4603F828
:105A5800015B9907F8D1032C2ED9D5B245EA052563
:105A68000F2C45EA054519D9264603F11001103EC9
:105A78000F2E41F8105C41F80C5C41F8085C41F8C5
:105A8800045C01F11001F2D8A4F1100121F00F011A
:105A980004F00F041031032C0B440DD91E46214687
:105AA8000439032946F8045BFAD8211F21F00301C1
:105AB80004310B4404F003042CB1D2B21C4403F8A3
:105AC800012BA342FBD170BC70470C460346C2E7CA
